{
  "_format": "hh-sol-artifact-1",
  "contractName": "BuyMeCoffee",
  "sourceName": "contracts/BuyMeCoffee.sol",
  "abi": [
    {
      "anonymous": false,
      "inputs": [
        {
          "indexed": false,
          "internalType": "string",
          "name": "_title",
          "type": "string"
        },
        {
          "indexed": false,
          "internalType": "string",
          "name": "_message",
          "type": "string"
        },
        {
          "indexed": true,
          "internalType": "address",
          "name": "_sender",
          "type": "address"
        },
        {
          "indexed": false,
          "internalType": "uint256",
          "name": "_cost",
          "type": "uint256"
        },
        {
          "indexed": false,
          "internalType": "uint256",
          "name": "_timestamp",
          "type": "uint256"
        }
      ],
      "name": "NewOneIsBuyingCoffe",
      "type": "event"
    },
    {
      "inputs": [
        {
          "internalType": "string",
          "name": "_title",
          "type": "string"
        },
        {
          "internalType": "string",
          "name": "_message",
          "type": "string"
        }
      ],
      "name": "buyMeCoffee",
      "outputs": [],
      "stateMutability": "payable",
      "type": "function"
    },
    {
      "inputs": [
        {
          "internalType": "uint256",
          "name": "",
          "type": "uint256"
        }
      ],
      "name": "coffee",
      "outputs": [
        {
          "internalType": "string",
          "name": "_title",
          "type": "string"
        },
        {
          "internalType": "string",
          "name": "_message",
          "type": "string"
        },
        {
          "internalType": "address",
          "name": "_sender",
          "type": "address"
        },
        {
          "internalType": "uint256",
          "name": "_amount",
          "type": "uint256"
        },
        {
          "internalType": "uint256",
          "name": "_timestamp",
          "type": "uint256"
        }
      ],
      "stateMutability": "view",
      "type": "function"
    },
    {
      "inputs": [],
      "name": "getAllCoffee",
      "outputs": [
        {
          "components": [
            {
              "internalType": "string",
              "name": "_title",
              "type": "string"
            },
            {
              "internalType": "string",
              "name": "_message",
              "type": "string"
            },
            {
              "internalType": "address",
              "name": "_sender",
              "type": "address"
            },
            {
              "internalType": "uint256",
              "name": "_amount",
              "type": "uint256"
            },
            {
              "internalType": "uint256",
              "name": "_timestamp",
              "type": "uint256"
            }
          ],
          "internalType": "struct BuyMeCoffee.Coffee[]",
          "name": "",
          "type": "tuple[]"
        }
      ],
      "stateMutability": "view",
      "type": "function"
    },
    {
      "inputs": [],
      "name": "getTotalCoffe",
      "outputs": [
        {
          "internalType": "uint256",
          "name": "",
          "type": "uint256"
        }
      ],
      "stateMutability": "view",
      "type": "function"
    },
    {
      "inputs": [],
      "name": "initialize",
      "outputs": [],
      "stateMutability": "nonpayable",
      "type": "function"
    },
    {
      "inputs": [],
      "name": "owner",
      "outputs": [
        {
          "internalType": "address",
          "name": "",
          "type": "address"
        }
      ],
      "stateMutability": "view",
      "type": "function"
    },
    {
      "inputs": [],
      "name": "totalCoffe",
      "outputs": [
        {
          "internalType": "uint256",
          "name": "",
          "type": "uint256"
        }
      ],
      "stateMutability": "view",
      "type": "function"
    }
  ],
  "bytecode": "0x608060405234801561001057600080fd5b506110a8806100206000396000f3fe6080604052600436106100705760003560e01c80638e1898ee1161004e5780638e1898ee146100d35780639f4a3432146100fe578063d386beca14610129578063e0d1e32d1461015457610070565b806351eb2d81146100755780638129fc1c146100915780638da5cb5b146100a8575b600080fd5b61008f600480360381019061008a9190610a09565b610195565b005b34801561009d57600080fd5b506100a6610423565b005b3480156100b457600080fd5b506100bd61046d565b6040516100ca9190610ac2565b60405180910390f35b3480156100df57600080fd5b506100e8610496565b6040516100f59190610af6565b60405180910390f35b34801561010a57600080fd5b5061011361049c565b6040516101209190610af6565b60405180910390f35b34801561013557600080fd5b5061013e6104a9565b60405161014b9190610cf6565b60405180910390f35b34801561016057600080fd5b5061017b60048036038101906101769190610d44565b610696565b60405161018c959493929190610dbb565b60405180910390f35b600066038d7ea4c680009050803410156101e4576040517f08c379a00000000000000000000000000000000000000000000000000000000081526004016101db90610e68565b60405180910390fd5b60008060009054906101000a900473ffffffffffffffffffffffffffffffffffffffff1673ffffffffffffffffffffffffffffffffffffffff163460405161022b90610eb9565b60006040518083038185875af1925050503d8060008114610268576040519150601f19603f3d011682016040523d82523d6000602084013e61026d565b606091505b50509050806102b1576040517f08c379a00000000000000000000000000000000000000000000000000000000081526004016102a890610f1a565b60405180910390fd5b60026040518060a001604052808681526020018581526020013373ffffffffffffffffffffffffffffffffffffffff168152602001348152602001428152509080600181540180825580915050600190039060005260206000209060050201600090919091909150600082015181600001908051906020019061033592919061080c565b50602082015181600101908051906020019061035292919061080c565b5060408201518160020160006101000a81548173ffffffffffffffffffffffffffffffffffffffff021916908373ffffffffffffffffffffffffffffffffffffffff1602179055506060820151816003015560808201518160040155505060018060008282546103c29190610f69565b925050819055503373ffffffffffffffffffffffffffffffffffffffff167f8c2753c20b265d3cdbb9861c13c1d9d2d8be4c9057c417d6f9ff3dc8930687a5858534426040516104159493929190610fbf565b60405180910390a250505050565b336000806101000a81548173ffffffffffffffffffffffffffffffffffffffff021916908373ffffffffffffffffffffffffffffffffffffffff1602179055506000600181905550565b60008060009054906101000a900473ffffffffffffffffffffffffffffffffffffffff16905090565b60015481565b6000600280549050905090565b60606002805480602002602001604051908101604052809291908181526020016000905b8282101561068d57838290600052602060002090600502016040518060a001604052908160008201805461050090611041565b80601f016020809104026020016040519081016040528092919081815260200182805461052c90611041565b80156105795780601f1061054e57610100808354040283529160200191610579565b820191906000526020600020905b81548152906001019060200180831161055c57829003601f168201915b5050505050815260200160018201805461059290611041565b80601f01602080910402602001604051908101604052809291908181526020018280546105be90611041565b801561060b5780601f106105e05761010080835404028352916020019161060b565b820191906000526020600020905b8154815290600101906020018083116105ee57829003601f168201915b505050505081526020016002820160009054906101000a900473ffffffffffffffffffffffffffffffffffffffff1673ffffffffffffffffffffffffffffffffffffffff1673ffffffffffffffffffffffffffffffffffffffff16815260200160038201548152602001600482015481525050815260200190600101906104cd565b50505050905090565b600281815481106106a657600080fd5b90600052602060002090600502016000915090508060000180546106c990611041565b80601f01602080910402602001604051908101604052809291908181526020018280546106f590611041565b80156107425780601f1061071757610100808354040283529160200191610742565b820191906000526020600020905b81548152906001019060200180831161072557829003601f168201915b50505050509080600101805461075790611041565b80601f016020809104026020016040519081016040528092919081815260200182805461078390611041565b80156107d05780601f106107a5576101008083540402835291602001916107d0565b820191906000526020600020905b8154815290600101906020018083116107b357829003601f168201915b5050505050908060020160009054906101000a900473ffffffffffffffffffffffffffffffffffffffff16908060030154908060040154905085565b82805461081890611041565b90600052602060002090601f01602090048101928261083a5760008555610881565b82601f1061085357805160ff1916838001178555610881565b82800160010185558215610881579182015b82811115610880578251825591602001919060010190610865565b5b50905061088e9190610892565b5090565b5b808211156108ab576000816000905550600101610893565b5090565b6000604051905090565b600080fd5b600080fd5b600080fd5b600080fd5b6000601f19601f8301169050919050565b7f4e487b7100000000000000000000000000000000000000000000000000000000600052604160045260246000fd5b610916826108cd565b810181811067ffffffffffffffff82111715610935576109346108de565b5b80604052505050565b60006109486108af565b9050610954828261090d565b919050565b600067ffffffffffffffff821115610974576109736108de565b5b61097d826108cd565b9050602081019050919050565b82818337600083830152505050565b60006109ac6109a784610959565b61093e565b9050828152602081018484840111156109c8576109c76108c8565b5b6109d384828561098a565b509392505050565b600082601f8301126109f0576109ef6108c3565b5b8135610a00848260208601610999565b91505092915050565b60008060408385031215610a2057610a1f6108b9565b5b600083013567ffffffffffffffff811115610a3e57610a3d6108be565b5b610a4a858286016109db565b925050602083013567ffffffffffffffff811115610a6b57610a6a6108be565b5b610a77858286016109db565b9150509250929050565b600073ffffffffffffffffffffffffffffffffffffffff82169050919050565b6000610aac82610a81565b9050919050565b610abc81610aa1565b82525050565b6000602082019050610ad76000830184610ab3565b92915050565b6000819050919050565b610af081610add565b82525050565b6000602082019050610b0b6000830184610ae7565b92915050565b600081519050919050565b600082825260208201905092915050565b6000819050602082019050919050565b600081519050919050565b600082825260208201905092915050565b60005b83811015610b77578082015181840152602081019050610b5c565b83811115610b86576000848401525b50505050565b6000610b9782610b3d565b610ba18185610b48565b9350610bb1818560208601610b59565b610bba816108cd565b840191505092915050565b610bce81610aa1565b82525050565b610bdd81610add565b82525050565b600060a0830160008301518482036000860152610c008282610b8c565b91505060208301518482036020860152610c1a8282610b8c565b9150506040830151610c2f6040860182610bc5565b506060830151610c426060860182610bd4565b506080830151610c556080860182610bd4565b508091505092915050565b6000610c6c8383610be3565b905092915050565b6000602082019050919050565b6000610c8c82610b11565b610c968185610b1c565b935083602082028501610ca885610b2d565b8060005b85811015610ce45784840389528151610cc58582610c60565b9450610cd083610c74565b925060208a01995050600181019050610cac565b50829750879550505050505092915050565b60006020820190508181036000830152610d108184610c81565b905092915050565b610d2181610add565b8114610d2c57600080fd5b50565b600081359050610d3e81610d18565b92915050565b600060208284031215610d5a57610d596108b9565b5b6000610d6884828501610d2f565b91505092915050565b600082825260208201905092915050565b6000610d8d82610b3d565b610d978185610d71565b9350610da7818560208601610b59565b610db0816108cd565b840191505092915050565b600060a0820190508181036000830152610dd58188610d82565b90508181036020830152610de98187610d82565b9050610df86040830186610ab3565b610e056060830185610ae7565b610e126080830184610ae7565b9695505050505050565b7f596f75206d7573742073656e64206174206c6561737420302e30303120455448600082015250565b6000610e52602083610d71565b9150610e5d82610e1c565b602082019050919050565b60006020820190508181036000830152610e8181610e45565b9050919050565b600081905092915050565b50565b6000610ea3600083610e88565b9150610eae82610e93565b600082019050919050565b6000610ec482610e96565b9150819050919050565b7f4661696c656420746f2073656e64204574686572000000000000000000000000600082015250565b6000610f04601483610d71565b9150610f0f82610ece565b602082019050919050565b60006020820190508181036000830152610f3381610ef7565b9050919050565b7f4e487b7100000000000000000000000000000000000000000000000000000000600052601160045260246000fd5b6000610f7482610add565b9150610f7f83610add565b9250827fffffffffffffffffffffffffffffffffffffffffffffffffffffffffffffffff03821115610fb457610fb3610f3a565b5b828201905092915050565b60006080820190508181036000830152610fd98187610d82565b90508181036020830152610fed8186610d82565b9050610ffc6040830185610ae7565b6110096060830184610ae7565b95945050505050565b7f4e487b7100000000000000000000000000000000000000000000000000000000600052602260045260246000fd5b6000600282049050600182168061105957607f821691505b60208210810361106c5761106b611012565b5b5091905056fea2646970667358221220e367c85c3ecccbbd9afa26308baca3616e29317cf05cd5807e04ecc6de2f6ccf64736f6c634300080e0033",
  "linkReferences": {},
  "deployedLinkReferences": {}
}