{
  "_format": "hh-sol-artifact-1",
  "contractName": "BuyMeCoffee2",
  "sourceName": "contracts/BuyMeCoffee2.sol",
  "abi": [
    {
      "inputs": [],
      "stateMutability": "nonpayable",
      "type": "constructor"
    },
    {
      "inputs": [
        {
          "internalType": "string",
          "name": "_userName",
          "type": "string"
        },
        {
          "internalType": "string",
          "name": "_message",
          "type": "string"
        }
      ],
      "name": "buyMeCoffee",
      "outputs": [],
      "stateMutability": "payable",
      "type": "function"
    },
    {
      "inputs": [
        {
          "internalType": "uint256",
          "name": "",
          "type": "uint256"
        }
      ],
      "name": "coffee",
      "outputs": [
        {
          "internalType": "string",
          "name": "userName",
          "type": "string"
        },
        {
          "internalType": "string",
          "name": "message",
          "type": "string"
        },
        {
          "internalType": "address",
          "name": "sender",
          "type": "address"
        },
        {
          "internalType": "uint256",
          "name": "amount",
          "type": "uint256"
        },
        {
          "internalType": "uint256",
          "name": "timeStamp",
          "type": "uint256"
        }
      ],
      "stateMutability": "view",
      "type": "function"
    },
    {
      "inputs": [],
      "name": "getAllBuyMeCoffee",
      "outputs": [
        {
          "components": [
            {
              "internalType": "string",
              "name": "userName",
              "type": "string"
            },
            {
              "internalType": "string",
              "name": "message",
              "type": "string"
            },
            {
              "internalType": "address",
              "name": "sender",
              "type": "address"
            },
            {
              "internalType": "uint256",
              "name": "amount",
              "type": "uint256"
            },
            {
              "internalType": "uint256",
              "name": "timeStamp",
              "type": "uint256"
            }
          ],
          "internalType": "struct BuyMeCoffee2.BuyMeCoffee[]",
          "name": "",
          "type": "tuple[]"
        }
      ],
      "stateMutability": "view",
      "type": "function"
    },
    {
      "inputs": [],
      "name": "owner",
      "outputs": [
        {
          "internalType": "address payable",
          "name": "",
          "type": "address"
        }
      ],
      "stateMutability": "view",
      "type": "function"
    },
    {
      "inputs": [],
      "name": "totalBuyMeCoffee",
      "outputs": [
        {
          "internalType": "uint256",
          "name": "",
          "type": "uint256"
        }
      ],
      "stateMutability": "view",
      "type": "function"
    }
  ],
  "bytecode": "0x6080604052600060025534801561001557600080fd5b50336000806101000a81548173ffffffffffffffffffffffffffffffffffffffff021916908373ffffffffffffffffffffffffffffffffffffffff160217905550611101806100656000396000f3fe60806040526004361061004a5760003560e01c806351eb2d811461004f57806364f8fbfb1461006b5780638da5cb5b14610096578063b3099c9e146100c1578063e0d1e32d146100ec575b600080fd5b61006960048036038101906100649190610841565b61012d565b005b34801561007757600080fd5b5061008061035a565b60405161008d9190610ad1565b60405180910390f35b3480156100a257600080fd5b506100ab610547565b6040516100b89190610b14565b60405180910390f35b3480156100cd57600080fd5b506100d661056b565b6040516100e39190610b3e565b60405180910390f35b3480156100f857600080fd5b50610113600480360381019061010e9190610b85565b610571565b604051610124959493929190610c0b565b60405180910390f35b600066038d7ea4c6800090508034101561017c576040517f08c379a000000000000000000000000000000000000000000000000000000000815260040161017390610cb8565b60405180910390fd5b60008060009054906101000a900473ffffffffffffffffffffffffffffffffffffffff1673ffffffffffffffffffffffffffffffffffffffff16346040516101c390610d09565b60006040518083038185875af1925050503d8060008114610200576040519150601f19603f3d011682016040523d82523d6000602084013e610205565b606091505b5050905080610249576040517f08c379a000000000000000000000000000000000000000000000000000000000815260040161024090610d6a565b60405180910390fd5b60016040518060a001604052808681526020018581526020013373ffffffffffffffffffffffffffffffffffffffff16815260200134815260200142815250908060018154018082558091505060019003906000526020600020906005020160009091909190915060008201518160000190816102c69190610f96565b5060208201518160010190816102dc9190610f96565b5060408201518160020160006101000a81548173ffffffffffffffffffffffffffffffffffffffff021916908373ffffffffffffffffffffffffffffffffffffffff1602179055506060820151816003015560808201518160040155505060016002600082825461034d9190611097565b9250508190555050505050565b60606001805480602002602001604051908101604052809291908181526020016000905b8282101561053e57838290600052602060002090600502016040518060a00160405290816000820180546103b190610db9565b80601f01602080910402602001604051908101604052809291908181526020018280546103dd90610db9565b801561042a5780601f106103ff5761010080835404028352916020019161042a565b820191906000526020600020905b81548152906001019060200180831161040d57829003601f168201915b5050505050815260200160018201805461044390610db9565b80601f016020809104026020016040519081016040528092919081815260200182805461046f90610db9565b80156104bc5780601f10610491576101008083540402835291602001916104bc565b820191906000526020600020905b81548152906001019060200180831161049f57829003601f168201915b505050505081526020016002820160009054906101000a900473ffffffffffffffffffffffffffffffffffffffff1673ffffffffffffffffffffffffffffffffffffffff1673ffffffffffffffffffffffffffffffffffffffff168152602001600382015481526020016004820154815250508152602001906001019061037e565b50505050905090565b60008054906101000a900473ffffffffffffffffffffffffffffffffffffffff1681565b60025481565b6001818154811061058157600080fd5b90600052602060002090600502016000915090508060000180546105a490610db9565b80601f01602080910402602001604051908101604052809291908181526020018280546105d090610db9565b801561061d5780601f106105f25761010080835404028352916020019161061d565b820191906000526020600020905b81548152906001019060200180831161060057829003601f168201915b50505050509080600101805461063290610db9565b80601f016020809104026020016040519081016040528092919081815260200182805461065e90610db9565b80156106ab5780601f10610680576101008083540402835291602001916106ab565b820191906000526020600020905b81548152906001019060200180831161068e57829003601f168201915b5050505050908060020160009054906101000a900473ffffffffffffffffffffffffffffffffffffffff16908060030154908060040154905085565b6000604051905090565b600080fd5b600080fd5b600080fd5b600080fd5b6000601f19601f8301169050919050565b7f4e487b7100000000000000000000000000000000000000000000000000000000600052604160045260246000fd5b61074e82610705565b810181811067ffffffffffffffff8211171561076d5761076c610716565b5b80604052505050565b60006107806106e7565b905061078c8282610745565b919050565b600067ffffffffffffffff8211156107ac576107ab610716565b5b6107b582610705565b9050602081019050919050565b82818337600083830152505050565b60006107e46107df84610791565b610776565b905082815260208101848484011115610800576107ff610700565b5b61080b8482856107c2565b509392505050565b600082601f830112610828576108276106fb565b5b81356108388482602086016107d1565b91505092915050565b60008060408385031215610858576108576106f1565b5b600083013567ffffffffffffffff811115610876576108756106f6565b5b61088285828601610813565b925050602083013567ffffffffffffffff8111156108a3576108a26106f6565b5b6108af85828601610813565b9150509250929050565b600081519050919050565b600082825260208201905092915050565b6000819050602082019050919050565b600081519050919050565b600082825260208201905092915050565b60005b8381101561091f578082015181840152602081019050610904565b60008484015250505050565b6000610936826108e5565b61094081856108f0565b9350610950818560208601610901565b61095981610705565b840191505092915050565b600073ffffffffffffffffffffffffffffffffffffffff82169050919050565b600061098f82610964565b9050919050565b61099f81610984565b82525050565b6000819050919050565b6109b8816109a5565b82525050565b600060a08301600083015184820360008601526109db828261092b565b915050602083015184820360208601526109f5828261092b565b9150506040830151610a0a6040860182610996565b506060830151610a1d60608601826109af565b506080830151610a3060808601826109af565b508091505092915050565b6000610a4783836109be565b905092915050565b6000602082019050919050565b6000610a67826108b9565b610a7181856108c4565b935083602082028501610a83856108d5565b8060005b85811015610abf5784840389528151610aa08582610a3b565b9450610aab83610a4f565b925060208a01995050600181019050610a87565b50829750879550505050505092915050565b60006020820190508181036000830152610aeb8184610a5c565b905092915050565b6000610afe82610964565b9050919050565b610b0e81610af3565b82525050565b6000602082019050610b296000830184610b05565b92915050565b610b38816109a5565b82525050565b6000602082019050610b536000830184610b2f565b92915050565b610b62816109a5565b8114610b6d57600080fd5b50565b600081359050610b7f81610b59565b92915050565b600060208284031215610b9b57610b9a6106f1565b5b6000610ba984828501610b70565b91505092915050565b600082825260208201905092915050565b6000610bce826108e5565b610bd88185610bb2565b9350610be8818560208601610901565b610bf181610705565b840191505092915050565b610c0581610984565b82525050565b600060a0820190508181036000830152610c258188610bc3565b90508181036020830152610c398187610bc3565b9050610c486040830186610bfc565b610c556060830185610b2f565b610c626080830184610b2f565b9695505050505050565b7f596f75206d7573742073656e64206174206c6561737420302e30303120455448600082015250565b6000610ca2602083610bb2565b9150610cad82610c6c565b602082019050919050565b60006020820190508181036000830152610cd181610c95565b9050919050565b600081905092915050565b50565b6000610cf3600083610cd8565b9150610cfe82610ce3565b600082019050919050565b6000610d1482610ce6565b9150819050919050565b7f4661696c656420746f2073656e64204574686572000000000000000000000000600082015250565b6000610d54601483610bb2565b9150610d5f82610d1e565b602082019050919050565b60006020820190508181036000830152610d8381610d47565b9050919050565b7f4e487b7100000000000000000000000000000000000000000000000000000000600052602260045260246000fd5b60006002820490506001821680610dd157607f821691505b602082108103610de457610de3610d8a565b5b50919050565b60008190508160005260206000209050919050565b60006020601f8301049050919050565b600082821b905092915050565b600060088302610e4c7fffffffffffffffffffffffffffffffffffffffffffffffffffffffffffffffff82610e0f565b610e568683610e0f565b95508019841693508086168417925050509392505050565b6000819050919050565b6000610e93610e8e610e89846109a5565b610e6e565b6109a5565b9050919050565b6000819050919050565b610ead83610e78565b610ec1610eb982610e9a565b848454610e1c565b825550505050565b600090565b610ed6610ec9565b610ee1818484610ea4565b505050565b5b81811015610f0557610efa600082610ece565b600181019050610ee7565b5050565b601f821115610f4a57610f1b81610dea565b610f2484610dff565b81016020851015610f33578190505b610f47610f3f85610dff565b830182610ee6565b50505b505050565b600082821c905092915050565b6000610f6d60001984600802610f4f565b1980831691505092915050565b6000610f868383610f5c565b9150826002028217905092915050565b610f9f826108e5565b67ffffffffffffffff811115610fb857610fb7610716565b5b610fc28254610db9565b610fcd828285610f09565b600060209050601f8311600181146110005760008415610fee578287015190505b610ff88582610f7a565b865550611060565b601f19841661100e86610dea565b60005b8281101561103657848901518255600182019150602085019450602081019050611011565b86831015611053578489015161104f601f891682610f5c565b8355505b6001600288020188555050505b505050505050565b7f4e487b7100000000000000000000000000000000000000000000000000000000600052601160045260246000fd5b60006110a2826109a5565b91506110ad836109a5565b92508282019050808211156110c5576110c4611068565b5b9291505056fea2646970667358221220c4d539cdd546579087e143c9917af7c26619d7ee2142852ac5a5223236ba7bdb64736f6c63430008110033",
  "linkReferences": {},
  "deployedLinkReferences": {}
}